{
  "_format": "hh-sol-artifact-1",
  "contractName": "Ops",
  "sourceName": "contracts/Ops.sol",
  "abi": [
    {
      "inputs": [
        {
          "internalType": "address payable",
          "name": "_gelato",
          "type": "address"
        },
        {
          "internalType": "contract ITaskTreasuryUpgradable",
          "name": "_taskTreasury",
          "type": "address"
        }
      ],
      "stateMutability": "nonpayable",
      "type": "constructor"
    },
    {
      "stateMutability": "nonpayable",
      "type": "fallback"
    },
    {
      "inputs": [
        {
          "internalType": "bytes32",
          "name": "_taskId",
          "type": "bytes32"
        }
      ],
      "name": "cancelTask",
      "outputs": [],
      "stateMutability": "nonpayable",
      "type": "function"
    },
    {
      "inputs": [
        {
          "internalType": "address",
          "name": "_execAddress",
          "type": "address"
        },
        {
          "internalType": "bytes",
          "name": "_execDataOrSelector",
          "type": "bytes"
        },
        {
          "components": [
            {
              "internalType": "enum LibDataTypes.Module[]",
              "name": "modules",
              "type": "uint8[]"
            },
            {
              "internalType": "bytes[]",
              "name": "args",
              "type": "bytes[]"
            }
          ],
          "internalType": "struct LibDataTypes.ModuleData",
          "name": "_moduleData",
          "type": "tuple"
        },
        {
          "internalType": "address",
          "name": "_feeToken",
          "type": "address"
        }
      ],
      "name": "createTask",
      "outputs": [
        {
          "internalType": "bytes32",
          "name": "taskId",
          "type": "bytes32"
        }
      ],
      "stateMutability": "nonpayable",
      "type": "function"
    },
    {
      "inputs": [
        {
          "internalType": "address",
          "name": "_taskCreator",
          "type": "address"
        },
        {
          "internalType": "address",
          "name": "_execAddress",
          "type": "address"
        },
        {
          "internalType": "bytes",
          "name": "_execData",
          "type": "bytes"
        },
        {
          "components": [
            {
              "internalType": "enum LibDataTypes.Module[]",
              "name": "modules",
              "type": "uint8[]"
            },
            {
              "internalType": "bytes[]",
              "name": "args",
              "type": "bytes[]"
            }
          ],
          "internalType": "struct LibDataTypes.ModuleData",
          "name": "_moduleData",
          "type": "tuple"
        },
        {
          "internalType": "uint256",
          "name": "_txFee",
          "type": "uint256"
        },
        {
          "internalType": "address",
          "name": "_feeToken",
          "type": "address"
        },
        {
          "internalType": "bool",
          "name": "_useTaskTreasuryFunds",
          "type": "bool"
        },
        {
          "internalType": "bool",
          "name": "_revertOnFailure",
          "type": "bool"
        }
      ],
      "name": "exec",
      "outputs": [],
      "stateMutability": "nonpayable",
      "type": "function"
    },
    {
      "inputs": [
        {
          "internalType": "bytes32",
          "name": "",
          "type": "bytes32"
        }
      ],
      "name": "execAddresses",
      "outputs": [
        {
          "internalType": "address",
          "name": "",
          "type": "address"
        }
      ],
      "stateMutability": "view",
      "type": "function"
    },
    {
      "inputs": [],
      "name": "fee",
      "outputs": [
        {
          "internalType": "uint256",
          "name": "",
          "type": "uint256"
        }
      ],
      "stateMutability": "view",
      "type": "function"
    },
    {
      "inputs": [],
      "name": "feeToken",
      "outputs": [
        {
          "internalType": "address",
          "name": "",
          "type": "address"
        }
      ],
      "stateMutability": "view",
      "type": "function"
    },
    {
      "inputs": [],
      "name": "gelato",
      "outputs": [
        {
          "internalType": "address payable",
          "name": "",
          "type": "address"
        }
      ],
      "stateMutability": "view",
      "type": "function"
    },
    {
      "inputs": [],
      "name": "getFeeDetails",
      "outputs": [
        {
          "internalType": "uint256",
          "name": "",
          "type": "uint256"
        },
        {
          "internalType": "address",
          "name": "",
          "type": "address"
        }
      ],
      "stateMutability": "view",
      "type": "function"
    },
    {
      "inputs": [
        {
          "internalType": "address",
          "name": "_taskCreator",
          "type": "address"
        }
      ],
      "name": "getTaskIdsByUser",
      "outputs": [
        {
          "internalType": "bytes32[]",
          "name": "",
          "type": "bytes32[]"
        }
      ],
      "stateMutability": "view",
      "type": "function"
    },
    {
      "inputs": [
        {
          "internalType": "enum LibDataTypes.Module[]",
          "name": "_modules",
          "type": "uint8[]"
        },
        {
          "internalType": "address[]",
          "name": "_moduleAddresses",
          "type": "address[]"
        }
      ],
      "name": "setModule",
      "outputs": [],
      "stateMutability": "nonpayable",
      "type": "function"
    },
    {
      "inputs": [
        {
          "internalType": "bytes32",
          "name": "",
          "type": "bytes32"
        }
      ],
      "name": "taskCreator",
      "outputs": [
        {
          "internalType": "address",
          "name": "",
          "type": "address"
        }
      ],
      "stateMutability": "view",
      "type": "function"
    },
    {
      "inputs": [
        {
          "internalType": "enum LibDataTypes.Module",
          "name": "",
          "type": "uint8"
        }
      ],
      "name": "taskModuleAddresses",
      "outputs": [
        {
          "internalType": "address",
          "name": "",
          "type": "address"
        }
      ],
      "stateMutability": "view",
      "type": "function"
    },
    {
      "inputs": [],
      "name": "taskTreasury",
      "outputs": [
        {
          "internalType": "contract ITaskTreasuryUpgradable",
          "name": "",
          "type": "address"
        }
      ],
      "stateMutability": "view",
      "type": "function"
    },
    {
      "inputs": [
        {
          "internalType": "bytes32",
          "name": "",
          "type": "bytes32"
        }
      ],
      "name": "timedTask",
      "outputs": [
        {
          "internalType": "uint128",
          "name": "nextExec",
          "type": "uint128"
        },
        {
          "internalType": "uint128",
          "name": "interval",
          "type": "uint128"
        }
      ],
      "stateMutability": "view",
      "type": "function"
    },
    {
      "inputs": [],
      "name": "version",
      "outputs": [
        {
          "internalType": "string",
          "name": "",
          "type": "string"
        }
      ],
      "stateMutability": "view",
      "type": "function"
    }
  ],
  "bytecode": "0x60c06040523480156200001157600080fd5b5060405162004c9338038062004c9383398181016040528101906200003791906200016c565b818073ffffffffffffffffffffffffffffffffffffffff1660808173ffffffffffffffffffffffffffffffffffffffff1681525050508073ffffffffffffffffffffffffffffffffffffffff1660a08173ffffffffffffffffffffffffffffffffffffffff16815250505050620001b3565b600080fd5b600073ffffffffffffffffffffffffffffffffffffffff82169050919050565b6000620000db82620000ae565b9050919050565b620000ed81620000ce565b8114620000f957600080fd5b50565b6000815190506200010d81620000e2565b92915050565b60006200012082620000ae565b9050919050565b6000620001348262000113565b9050919050565b620001468162000127565b81146200015257600080fd5b50565b60008151905062000166816200013b565b92915050565b60008060408385031215620001865762000185620000a9565b5b60006200019685828601620000fc565b9250506020620001a98582860162000155565b9150509250929050565b60805160a051614aac620001e7600039600081816108bb01526112f10152600081816104e901526106cd0152614aac6000f3fe608060405234801561001057600080fd5b50600436106100f95760003560e01c8063813785e611610097578063cd3d4fb911610066578063cd3d4fb9146102b8578063ddca3f43146102e8578063e60a321314610306578063ee8ca3b514610324576100fa565b8063813785e614610230578063ad558ab91461024c578063b810c63614610268578063b81cd86614610287576100fa565b806354fd4d50116100d357806354fd4d50146101a6578063573ea575146101c4578063647846a5146101e25780636d2dd29f14610200576100fa565b80630407145c146101165780632e6e0bd0146101465780633323b46714610176576100fa565b5b60003660606101098383610340565b9050915050805190602001f35b610130600480360381019061012b9190612d2f565b6103a8565b60405161013d9190612e24565b60405180910390f35b610160600480360381019061015b9190612e72565b6103fe565b60405161016d9190612eae565b60405180910390f35b610190600480360381019061018b9190612f52565b610431565b60405161019d9190613005565b60405180910390f35b6101ae6104ae565b6040516101bb91906130b9565b60405180910390f35b6101cc6104e7565b6040516101d991906130fc565b60405180910390f35b6101ea61050b565b6040516101f79190612eae565b60405180910390f35b61021a60048036038101906102159190612e72565b610531565b6040516102279190612eae565b60405180910390f35b61024a600480360381019061024591906131c3565b610564565b005b610266600480360381019061026191906133e2565b6106cb565b005b6102706107f3565b60405161027e9291906134df565b60405180910390f35b6102a1600480360381019061029c9190612e72565b610824565b6040516102af929190613533565b60405180910390f35b6102d260048036038101906102cd9190613581565b610880565b6040516102df9190612eae565b60405180910390f35b6102f06108b3565b6040516102fd91906135ae565b60405180910390f35b61030e6108b9565b60405161031b9190613628565b60405180910390f35b61033e60048036038101906103399190612e72565b6108dd565b005b6060600061034e84846108fb565b9050600080600080610361858989610a71565b935093509350935060006103783386868686610c39565b90508060405160200161038b9190613664565b604051602081830303815290604052965050505050505092915050565b606060006103f3600260008573ffffffffffffffffffffffffffffffffffffffff1673ffffffffffffffffffffffffffffffffffffffff168152602001908152602001600020610db7565b905080915050919050565b60006020528060005260406000206000915054906101000a900473ffffffffffffffffffffffffffffffffffffffff1681565b60008061044033886006610dcc565b80985081925050506104a2818888888080601f016020809104026020016040519081016040528093929190818152602001838380828437600081840152601f19601f820116905080830192505050505050508761049c906138b5565b87610c39565b91505095945050505050565b6040518060400160405280600181526020017f350000000000000000000000000000000000000000000000000000000000000081525081565b7f000000000000000000000000000000000000000000000000000000000000000081565b600460009054906101000a900473ffffffffffffffffffffffffffffffffffffffff1681565b60016020528060005260406000206000915054906101000a900473ffffffffffffffffffffffffffffffffffffffff1681565b61056c610f95565b73ffffffffffffffffffffffffffffffffffffffff163373ffffffffffffffffffffffffffffffffffffffff16146105d9576040517f08c379a00000000000000000000000000000000000000000000000000000000081526004016105d090613914565b60405180910390fd5b600084849050905060005b818110156106c3578383828181106105ff576105fe613934565b5b90506020020160208101906106149190612d2f565b6006600088888581811061062b5761062a613934565b5b90506020020160208101906106409190613581565b600481111561065257610651613963565b5b600481111561066457610663613963565b5b815260200190815260200160002060006101000a81548173ffffffffffffffffffffffffffffffffffffffff021916908373ffffffffffffffffffffffffffffffffffffffff16021790555080806106bb906139c1565b9150506105e4565b505050505050565b7f000000000000000000000000000000000000000000000000000000000000000073ffffffffffffffffffffffffffffffffffffffff163373ffffffffffffffffffffffffffffffffffffffff1614610759576040517f08c379a000000000000000000000000000000000000000000000000000000000815260040161075090613a55565b60405180910390fd5b600061078689896107698a610fbe565b89610773906138b5565b8761077e5788610781565b60005b611137565b90506107e8818a8a8a8a806000019061079f9190613a84565b80806020026020016040519081016040528093929190818152602001838360200280828437600081840152601f19601f820116905080830192505050505050508a8a8a8a6111f7565b505050505050505050565b600080600354600460009054906101000a900473ffffffffffffffffffffffffffffffffffffffff16915091509091565b60056020528060005260406000206000915090508060000160009054906101000a90046fffffffffffffffffffffffffffffffff16908060000160109054906101000a90046fffffffffffffffffffffffffffffffff16905082565b60066020528060005260406000206000915054906101000a900473ffffffffffffffffffffffffffffffffffffffff1681565b60035481565b7f000000000000000000000000000000000000000000000000000000000000000081565b60006108eb82336006611425565b90506108f781836115e2565b5050565b600060188383600381811061091357610912613934565b5b9050013560f81c60f81b7effffffffffffffffffffffffffffffffffffffffffffffffffffffffffffff19167bffffffffffffffffffffffffffffffffffffffffffffffffffffffff1916901c60108484600281811061097657610975613934565b5b9050013560f81c60f81b7effffffffffffffffffffffffffffffffffffffffffffffffffffffffffffff19167bffffffffffffffffffffffffffffffffffffffffffffffffffffffff1916901c6008858560018181106109d9576109d8613934565b5b9050013560f81c60f81b7effffffffffffffffffffffffffffffffffffffffffffffffffffffffffffff19167bffffffffffffffffffffffffffffffffffffffffffffffffffffffff1916901c85856000818110610a3a57610a39613934565b5b9050013560f81c60f81b7effffffffffffffffffffffffffffffffffffffffffffffffffffffffffffff1916171717905092915050565b60006060610a7d612ca3565b6000638b92696a60e01b7bffffffffffffffffffffffffffffffffffffffffffffffffffffffff1916877bffffffffffffffffffffffffffffffffffffffffffffffffffffffff191603610afb57610ae686866004908092610ae193929190613af1565b611701565b80945081955082965083975050505050610c30565b63b9f45adb60e01b7bffffffffffffffffffffffffffffffffffffffffffffffffffffffff1916877bffffffffffffffffffffffffffffffffffffffffffffffffffffffff191603610b7757610b6286866004908092610b5d93929190613af1565b6118a8565b80945081955082965083975050505050610c2f565b63a873882560e01b7bffffffffffffffffffffffffffffffffffffffffffffffffffffffff1916877bffffffffffffffffffffffffffffffffffffffffffffffffffffffff191603610bf357610bde86866004908092610bd993929190613af1565b611a4f565b80945081955082965083975050505050610c2e565b6040517f08c379a0000000000000000000000000000000000000000000000000000000008152600401610c2590613b9e565b60405180910390fd5b5b5b93509350935093565b6000610c508686610c4987610fbe565b8686611137565b9050610ca381600260008973ffffffffffffffffffffffffffffffffffffffff1673ffffffffffffffffffffffffffffffffffffffff168152602001908152602001600020611c1390919063ffffffff16565b15610ce3576040517f08c379a0000000000000000000000000000000000000000000000000000000008152600401610cda90613c0a565b60405180910390fd5b610cf281878787876006611c2a565b610d4381600260008973ffffffffffffffffffffffffffffffffffffffff1673ffffffffffffffffffffffffffffffffffffffff168152602001908152602001600020611dfc90919063ffffffff16565b50808573ffffffffffffffffffffffffffffffffffffffff168773ffffffffffffffffffffffffffffffffffffffff167f73f079427211e7b93db86024054de0b3c4a076a36cf0f86d2c4bf0d112eb7f1d878787604051610da693929190613ec6565b60405180910390a495945050505050565b6060610dc582600001611e13565b9050919050565b6000806000600480811115610de457610de3613963565b5b905060005b818111610f85576000816004811115610e0557610e04613963565b5b9050610e22816004811115610e1d57610e1c613963565b5b611e6f565b610e2c5750610f72565b6000866000836004811115610e4457610e43613963565b5b6004811115610e5657610e55613963565b5b815260200190815260200160002060009054906101000a900473ffffffffffffffffffffffffffffffffffffffff169050610e9081611eb0565b60006376474e6a60e01b8a8a604051602401610ead929190613f0b565b604051602081830303815290604052907bffffffffffffffffffffffffffffffffffffffffffffffffffffffff19166020820180517bffffffffffffffffffffffffffffffffffffffffffffffffffffffff838183161783525050505090506000610f4e83836040518060400160405280601381526020017f4f70732e7072654372656174655461736b3a2000000000000000000000000000815250611f22565b91505080806020019051810190610f659190613f60565b809b50819c505050505050505b8080610f7d906139c1565b915050610de9565b5085859250925050935093915050565b60007fb53127684a568b3173ae13b9f8a6016e243e63b6e8ee1178d6a717850b5d610354905090565b6000601882600381518110610fd657610fd5613934565b5b602001015160f81c60f81b7effffffffffffffffffffffffffffffffffffffffffffffffffffffffffffff19167bffffffffffffffffffffffffffffffffffffffffffffffffffffffff1916901c60108360028151811061103a57611039613934565b5b602001015160f81c60f81b7effffffffffffffffffffffffffffffffffffffffffffffffffffffffffffff19167bffffffffffffffffffffffffffffffffffffffffffffffffffffffff1916901c60088460018151811061109e5761109d613934565b5b602001015160f81c60f81b7effffffffffffffffffffffffffffffffffffffffffffffffffffffffffffff19167bffffffffffffffffffffffffffffffffffffffffffffffffffffffff1916901c84600081518110611100576110ff613934565b5b602001015160f81c60f81b7effffffffffffffffffffffffffffffffffffffffffffffffffffffffffffff19161717179050919050565b60006111468360000151611fac565b156111bc576000611175846020015160008151811061116857611167613934565b5b60200260200101516120bd565b90506111b4878787600073ffffffffffffffffffffffffffffffffffffffff168773ffffffffffffffffffffffffffffffffffffffff161487866120ce565b9150506111ee565b85858585856040516020016111d5959493929190613fdb565b6040516020818303038152906040528051906020012090505b95945050505050565b61124889600260008b73ffffffffffffffffffffffffffffffffffffffff1673ffffffffffffffffffffffffffffffffffffffff168152602001908152602001600020611c1390919063ffffffff16565b611287576040517f08c379a000000000000000000000000000000000000000000000000000000000815260040161127e90614081565b60405180910390fd5b816112d5578360038190555082600460006101000a81548173ffffffffffffffffffffffffffffffffffffffff021916908373ffffffffffffffffffffffffffffffffffffffff1602179055505b60006112e78a8a8a8a8a87600661210d565b90508215611383577f000000000000000000000000000000000000000000000000000000000000000073ffffffffffffffffffffffffffffffffffffffff1663a3f1233e8a86886040518463ffffffff1660e01b815260040161134c939291906140a1565b600060405180830381600087803b15801561136657600080fd5b505af115801561137a573d6000803e3d6000fd5b505050506113af565b600360009055600460006101000a81549073ffffffffffffffffffffffffffffffffffffffff02191690555b8773ffffffffffffffffffffffffffffffffffffffff168473ffffffffffffffffffffffffffffffffffffffff16867fa458375b1282695a972870cbfbc4891a9d856b79d563d17667d171d87e0c527a8a8e86604051611411939291906140e7565b60405180910390a450505050505050505050565b60008060048081111561143b5761143a613963565b5b905060005b8181116115d657600081600481111561145c5761145b613963565b5b905061147981600481111561147457611473613963565b5b6121b5565b61148357506115c3565b600085600083600481111561149b5761149a613963565b5b60048111156114ad576114ac613963565b5b815260200190815260200160002060009054906101000a900473ffffffffffffffffffffffffffffffffffffffff1690506114e781611eb0565b60006314ae992660e01b8989604051602401611504929190614125565b604051602081830303815290604052907bffffffffffffffffffffffffffffffffffffffffffffffffffffffff19166020820180517bffffffffffffffffffffffffffffffffffffffffffffffffffffffff8381831617835250505050905060006115a583836040518060400160405280601381526020017f4f70732e70726543616e63656c5461736b3a2000000000000000000000000000815250611f22565b915050808060200190518101906115bc919061414e565b9850505050505b80806115ce906139c1565b915050611440565b50839150509392505050565b61163381600260008573ffffffffffffffffffffffffffffffffffffffff1673ffffffffffffffffffffffffffffffffffffffff168152602001908152602001600020611c1390919063ffffffff16565b611672576040517f08c379a0000000000000000000000000000000000000000000000000000000008152600401611669906141c7565b60405180910390fd5b6116c381600260008573ffffffffffffffffffffffffffffffffffffffff1673ffffffffffffffffffffffffffffffffffffffff16815260200190815260200160002061222690919063ffffffff16565b507f44d83729a43f9c6046446df014d073dd242e0ad672071e9b292f31b669c25b0981836040516116f5929190614125565b60405180910390a15050565b6000606061170d612ca3565b6000806000606088888101906117239190614228565b809450819550829650839a50505050506000600167ffffffffffffffff8111156117505761174f613249565b5b60405190808252806020026020018201604052801561177e5781602001602082028036833780820191505090505b50905060008160008151811061179757611796613934565b5b602002602001019060048111156117b1576117b0613963565b5b908160048111156117c5576117c4613963565b5b815250506000600167ffffffffffffffff8111156117e6576117e5613249565b5b60405190808252806020026020018201604052801561181957816020015b60608152602001906001900390816118045790505b509050838360405160200161182f9291906142ab565b6040516020818303038152906040528160008151811061185257611851613934565b5b602002602001018190525060405180604001604052808381526020018281525096508460405160200161188591906142fc565b604051602081830303815290604052975060009550505050505092959194509250565b600060606118b4612ca3565b6000806000606088888101906118ca9190614317565b809850819550829650839750849b5050505050506000600167ffffffffffffffff8111156118fb576118fa613249565b5b6040519080825280602002602001820160405280156119295781602001602082028036833780820191505090505b50905060008160008151811061194257611941613934565b5b6020026020010190600481111561195c5761195b613963565b5b908160048111156119705761196f613963565b5b815250506000600167ffffffffffffffff81111561199157611990613249565b5b6040519080825280602002602001820160405280156119c457816020015b60608152602001906001900390816119af5790505b50905083836040516020016119da9291906142ab565b604051602081830303815290604052816000815181106119fd576119fc613934565b5b6020026020010181905250604051806040016040528083815260200182815250965084604051602001611a3091906142fc565b6040516020818303038152906040529750505050505092959194509250565b60006060611a5b612ca3565b6000606080611a6a888861223d565b809550819650829750839950849a5050505050506000600267ffffffffffffffff811115611a9b57611a9a613249565b5b604051908082528060200260200182016040528015611ac95781602001602082028036833780820191505090505b509050600081600081518110611ae257611ae1613934565b5b60200260200101906004811115611afc57611afb613963565b5b90816004811115611b1057611b0f613963565b5b81525050600181600181518110611b2a57611b29613934565b5b60200260200101906004811115611b4457611b43613963565b5b90816004811115611b5857611b57613963565b5b815250506000600267ffffffffffffffff811115611b7957611b78613249565b5b604051908082528060200260200182016040528015611bac57816020015b6060815260200190600190039081611b975790505b5090508381600081518110611bc457611bc3613934565b5b60200260200101819052508281600181518110611be457611be3613934565b5b602002602001018190525060405180604001604052808381526020018281525095505050505092959194509250565b6000611c228360000183612303565b905092915050565b60008260000151519050611c42818460000151612326565b60005b81811015611df257600084600001518281518110611c6657611c65613934565b5b60200260200101519050611c8b816004811115611c8657611c85613963565b5b612405565b611c955750611ddf565b6000846000836004811115611cad57611cac613963565b5b6004811115611cbf57611cbe613963565b5b815260200190815260200160002060009054906101000a900473ffffffffffffffffffffffffffffffffffffffff169050611cf981611eb0565b600063b0ccbdf060e01b8b8b8b8b8b602001518981518110611d1e57611d1d613934565b5b6020026020010151604051602401611d3a9594939291906143ae565b604051602081830303815290604052907bffffffffffffffffffffffffffffffffffffffffffffffffffffffff19166020820180517bffffffffffffffffffffffffffffffffffffffffffffffffffffffff83818316178352505050509050611dd982826040518060400160405280601281526020017f4f70732e6f6e4372656174655461736b3a200000000000000000000000000000815250611f22565b50505050505b8080611dea906139c1565b915050611c45565b5050505050505050565b6000611e0b8360000183612476565b905092915050565b606081600001805480602002602001604051908101604052809291908181526020018280548015611e6357602002820191906000526020600020905b815481526020019060010190808311611e4f575b50505050509050919050565b600060026004811115611e8557611e84613963565b5b826004811115611e9857611e97613963565b5b03611ea65760019050611eab565b600090505b919050565b600073ffffffffffffffffffffffffffffffffffffffff168173ffffffffffffffffffffffffffffffffffffffff1603611f1f576040517f08c379a0000000000000000000000000000000000000000000000000000000008152600401611f169061445b565b60405180910390fd5b50565b600060608473ffffffffffffffffffffffffffffffffffffffff1684604051611f4b91906144b7565b600060405180830381855af49150503d8060008114611f86576040519150601f19603f3d011682016040523d82523d6000602084013e611f8b565b606091505b50809250819350505081611fa457611fa381846124e6565b5b935093915050565b60008082519050600181148015612002575060006004811115611fd257611fd1613963565b5b83600081518110611fe657611fe5613934565b5b6020026020010151600481111561200057611fff613963565b5b145b806120a3575060028114801561205757506000600481111561202757612026613963565b5b8360008151811061203b5761203a613934565b5b6020026020010151600481111561205557612054613963565b5b145b80156120a257506001600481111561207257612071613963565b5b8360018151811061208657612085613934565b5b602002602001015160048111156120a05761209f613963565b5b145b5b156120b25760019150506120b8565b60009150505b919050565b600081805190602001209050919050565b60008686868686866040516020016120eb969594939291906144ce565b6040516020818303038152906040528051906020012090509695505050505050565b60008061211a858461264d565b905061212a89898989898661278a565b809750819850505061219687878a604051602001612149929190614577565b6040516020818303038152906040526000876040518060400160405280600a81526020017f4f70732e657865633a20000000000000000000000000000000000000000000008152506128fd565b50809250506121a9898989898986612997565b50979650505050505050565b6000600160048111156121cb576121ca613963565b5b8260048111156121de576121dd613963565b5b148061220e5750600260048111156121f9576121f8613963565b5b82600481111561220c5761220b613963565b5b145b1561221c5760019050612221565b600090505b919050565b60006122358360000183612add565b905092915050565b6000606060006060806000806000806000806000808e8e81019061226191906145cb565b97509750975097509750975097509750858560405160200161228391906142fc565b6040516020818303038152906040528261229d57836122a0565b60005b93508386866040516020016122b69291906142ab565b6040516020818303038152906040528b8b6040516020016122d8929190613533565b6040516020818303038152906040529c509c509c509c509c5050505050505050509295509295909350565b600080836001016000848152602001908152602001600020541415905092915050565b60018211156124015760005b60018361233f919061469d565b8110156123ff5781818151811061235957612358613934565b5b6020026020010151600481111561237357612372613963565b5b8260018361238191906146d1565b8151811061239257612391613934565b5b602002602001015160048111156123ac576123ab613963565b5b116123ec576040517f08c379a00000000000000000000000000000000000000000000000000000000081526004016123e390614773565b60405180910390fd5b80806123f7906139c1565b915050612332565b505b5050565b60006001600481111561241b5761241a613963565b5b82600481111561242e5761242d613963565b5b148061245e57506002600481111561244957612448613963565b5b82600481111561245c5761245b613963565b5b145b1561246c5760019050612471565b600090505b919050565b60006124828383612303565b6124db5782600001829080600181540180825580915050600190039060005260206000200160009091909190915055826000018054905083600101600084815260200190815260200160002081905550600190506124e0565b600090505b92915050565b6004602083516124f691906147c2565b036125f1576000826020015190506308c379a060e01b817bffffffffffffffffffffffffffffffffffffffffffffffffffffffff19160361259557604483019250818360405160200161254a92919061482f565b6040516020818303038152906040526040517f08c379a000000000000000000000000000000000000000000000000000000000815260040161258c91906130b9565b60405180910390fd5b816040516020016125a6919061489f565b6040516020818303038152906040526040517f08c379a00000000000000000000000000000000000000000000000000000000081526004016125e891906130b9565b60405180910390fd5b80604051602001612602919061490d565b6040516020818303038152906040526040517f08c379a000000000000000000000000000000000000000000000000000000000815260040161264491906130b9565b60405180910390fd5b606060008351905060008167ffffffffffffffff81111561267157612670613249565b5b60405190808252806020026020018201604052801561269f5781602001602082028036833780820191505090505b50905060005b8281101561277e578460008783815181106126c3576126c2613934565b5b602002602001015160048111156126dd576126dc613963565b5b60048111156126ef576126ee613963565b5b815260200190815260200160002060009054906101000a900473ffffffffffffffffffffffffffffffffffffffff1682828151811061273157612730613934565b5b602002602001019073ffffffffffffffffffffffffffffffffffffffff16908173ffffffffffffffffffffffffffffffffffffffff16815250508080612776906139c1565b9150506126a5565b50809250505092915050565b6000606060008451905060005b818110156128ea576127d48682815181106127b5576127b4613934565b5b602002602001015160048111156127cf576127ce613963565b5b612bf1565b156128d757600063c10304f760e01b8b8b8b8b6040516024016127fa949392919061492f565b604051602081830303815290604052907bffffffffffffffffffffffffffffffffffffffffffffffffffffffff19166020820180517bffffffffffffffffffffffffffffffffffffffffffffffffffffffff8381831617835250505050905060006128b587848151811061287157612870613934565b5b6020026020010151836040518060400160405280601181526020017f4f70732e7072654578656343616c6c3a20000000000000000000000000000000815250611f22565b915050808060200190518101906128cc91906149eb565b809a50819b50505050505b80806128e2906139c1565b915050612797565b5086869250925050965096945050505050565b600060608673ffffffffffffffffffffffffffffffffffffffff16858760405161292791906144b7565b60006040518083038185875af1925050503d8060008114612964576040519150601f19603f3d011682016040523d82523d6000602084013e612969565b606091505b5080925081935050508115801561297d5750835b1561298d5761298c81846124e6565b5b9550959350505050565b60008151905060005b81811015612ad3576129dd8482815181106129be576129bd613934565b5b602002602001015160048111156129d8576129d7613963565b5b612c62565b15612ac057600063b2db0b4160e01b89898989604051602401612a03949392919061492f565b604051602081830303815290604052907bffffffffffffffffffffffffffffffffffffffffffffffffffffffff19166020820180517bffffffffffffffffffffffffffffffffffffffffffffffffffffffff83818316178352505050509050612abc848381518110612a7857612a77613934565b5b6020026020010151826040518060400160405280601281526020017f4f70732e706f73744578656343616c6c3a200000000000000000000000000000815250611f22565b5050505b8080612acb906139c1565b9150506129a0565b5050505050505050565b60008083600101600084815260200190815260200160002054905060008114612be5576000600182612b0f919061469d565b9050600060018660000180549050612b27919061469d565b9050818114612b96576000866000018281548110612b4857612b47613934565b5b9060005260206000200154905080876000018481548110612b6c57612b6b613934565b5b90600052602060002001819055508387600101600083815260200190815260200160002081905550505b85600001805480612baa57612ba9614a47565b5b600190038181906000526020600020016000905590558560010160008681526020019081526020016000206000905560019350505050612beb565b60009150505b92915050565b600060016004811115612c0757612c06613963565b5b826004811115612c1a57612c19613963565b5b1480612c4a575060026004811115612c3557612c34613963565b5b826004811115612c4857612c47613963565b5b145b15612c585760019050612c5d565b600090505b919050565b600060036004811115612c7857612c77613963565b5b826004811115612c8b57612c8a613963565b5b03612c995760019050612c9e565b600090505b919050565b604051806040016040528060608152602001606081525090565b6000604051905090565b600080fd5b600080fd5b600073ffffffffffffffffffffffffffffffffffffffff82169050919050565b6000612cfc82612cd1565b9050919050565b612d0c81612cf1565b8114612d1757600080fd5b50565b600081359050612d2981612d03565b92915050565b600060208284031215612d4557612d44612cc7565b5b6000612d5384828501612d1a565b91505092915050565b600081519050919050565b600082825260208201905092915050565b6000819050602082019050919050565b6000819050919050565b612d9b81612d88565b82525050565b6000612dad8383612d92565b60208301905092915050565b6000602082019050919050565b6000612dd182612d5c565b612ddb8185612d67565b9350612de683612d78565b8060005b83811015612e17578151612dfe8882612da1565b9750612e0983612db9565b925050600181019050612dea565b5085935050505092915050565b60006020820190508181036000830152612e3e8184612dc6565b905092915050565b612e4f81612d88565b8114612e5a57600080fd5b50565b600081359050612e6c81612e46565b92915050565b600060208284031215612e8857612e87612cc7565b5b6000612e9684828501612e5d565b91505092915050565b612ea881612cf1565b82525050565b6000602082019050612ec36000830184612e9f565b92915050565b600080fd5b600080fd5b600080fd5b60008083601f840112612eee57612eed612ec9565b5b8235905067ffffffffffffffff811115612f0b57612f0a612ece565b5b602083019150836001820283011115612f2757612f26612ed3565b5b9250929050565b600080fd5b600060408284031215612f4957612f48612f2e565b5b81905092915050565b600080600080600060808688031215612f6e57612f6d612cc7565b5b6000612f7c88828901612d1a565b955050602086013567ffffffffffffffff811115612f9d57612f9c612ccc565b5b612fa988828901612ed8565b9450945050604086013567ffffffffffffffff811115612fcc57612fcb612ccc565b5b612fd888828901612f33565b9250506060612fe988828901612d1a565b9150509295509295909350565b612fff81612d88565b82525050565b600060208201905061301a6000830184612ff6565b92915050565b600081519050919050565b600082825260208201905092915050565b60005b8381101561305a57808201518184015260208101905061303f565b83811115613069576000848401525b50505050565b6000601f19601f8301169050919050565b600061308b82613020565b613095818561302b565b93506130a581856020860161303c565b6130ae8161306f565b840191505092915050565b600060208201905081810360008301526130d38184613080565b905092915050565b60006130e682612cd1565b9050919050565b6130f6816130db565b82525050565b600060208201905061311160008301846130ed565b92915050565b60008083601f84011261312d5761312c612ec9565b5b8235905067ffffffffffffffff81111561314a57613149612ece565b5b60208301915083602082028301111561316657613165612ed3565b5b9250929050565b60008083601f84011261318357613182612ec9565b5b8235905067ffffffffffffffff8111156131a05761319f612ece565b5b6020830191508360208202830111156131bc576131bb612ed3565b5b9250929050565b600080600080604085870312156131dd576131dc612cc7565b5b600085013567ffffffffffffffff8111156131fb576131fa612ccc565b5b61320787828801613117565b9450945050602085013567ffffffffffffffff81111561322a57613229612ccc565b5b6132368782880161316d565b925092505092959194509250565b600080fd5b7f4e487b7100000000000000000000000000000000000000000000000000000000600052604160045260246000fd5b6132818261306f565b810181811067ffffffffffffffff821117156132a05761329f613249565b5b80604052505050565b60006132b3612cbd565b90506132bf8282613278565b919050565b600067ffffffffffffffff8211156132df576132de613249565b5b6132e88261306f565b9050602081019050919050565b82818337600083830152505050565b6000613317613312846132c4565b6132a9565b90508281526020810184848401111561333357613332613244565b5b61333e8482856132f5565b509392505050565b600082601f83011261335b5761335a612ec9565b5b813561336b848260208601613304565b91505092915050565b6000819050919050565b61338781613374565b811461339257600080fd5b50565b6000813590506133a48161337e565b92915050565b60008115159050919050565b6133bf816133aa565b81146133ca57600080fd5b50565b6000813590506133dc816133b6565b92915050565b600080600080600080600080610100898b03121561340357613402612cc7565b5b60006134118b828c01612d1a565b98505060206134228b828c01612d1a565b975050604089013567ffffffffffffffff81111561344357613442612ccc565b5b61344f8b828c01613346565b965050606089013567ffffffffffffffff8111156134705761346f612ccc565b5b61347c8b828c01612f33565b955050608061348d8b828c01613395565b94505060a061349e8b828c01612d1a565b93505060c06134af8b828c016133cd565b92505060e06134c08b828c016133cd565b9150509295985092959890939650565b6134d981613374565b82525050565b60006040820190506134f460008301856134d0565b6135016020830184612e9f565b9392505050565b60006fffffffffffffffffffffffffffffffff82169050919050565b61352d81613508565b82525050565b60006040820190506135486000830185613524565b6135556020830184613524565b9392505050565b6005811061356957600080fd5b50565b60008135905061357b8161355c565b92915050565b60006020828403121561359757613596612cc7565b5b60006135a58482850161356c565b91505092915050565b60006020820190506135c360008301846134d0565b92915050565b6000819050919050565b60006135ee6135e96135e484612cd1565b6135c9565b612cd1565b9050919050565b6000613600826135d3565b9050919050565b6000613612826135f5565b9050919050565b61362281613607565b82525050565b600060208201905061363d6000830184613619565b92915050565b6000819050919050565b61365e61365982612d88565b613643565b82525050565b6000613670828461364d565b60208201915081905092915050565b600080fd5b600080fd5b600067ffffffffffffffff8211156136a4576136a3613249565b5b602082029050602081019050919050565b60006136c86136c384613689565b6132a9565b905080838252602082019050602084028301858111156136eb576136ea612ed3565b5b835b818110156137145780613700888261356c565b8452602084019350506020810190506136ed565b5050509392505050565b600082601f83011261373357613732612ec9565b5b81356137438482602086016136b5565b91505092915050565b600067ffffffffffffffff82111561376757613766613249565b5b602082029050602081019050919050565b600061378b6137868461374c565b6132a9565b905080838252602082019050602084028301858111156137ae576137ad612ed3565b5b835b818110156137f557803567ffffffffffffffff8111156137d3576137d2612ec9565b5b8086016137e08982613346565b855260208501945050506020810190506137b0565b5050509392505050565b600082601f83011261381457613813612ec9565b5b8135613824848260208601613778565b91505092915050565b6000604082840312156138435761384261367f565b5b61384d60406132a9565b9050600082013567ffffffffffffffff81111561386d5761386c613684565b5b6138798482850161371e565b600083015250602082013567ffffffffffffffff81111561389d5761389c613684565b5b6138a9848285016137ff565b60208301525092915050565b60006138c1368361382d565b9050919050565b7f4e4f545f415554484f52495a4544000000000000000000000000000000000000600082015250565b60006138fe600e8361302b565b9150613909826138c8565b602082019050919050565b6000602082019050818103600083015261392d816138f1565b9050919050565b7f4e487b7100000000000000000000000000000000000000000000000000000000600052603260045260246000fd5b7f4e487b7100000000000000000000000000000000000000000000000000000000600052602160045260246000fd5b7f4e487b7100000000000000000000000000000000000000000000000000000000600052601160045260246000fd5b60006139cc82613374565b91507fffffffffffffffffffffffffffffffffffffffffffffffffffffffffffffffff82036139fe576139fd613992565b5b600182019050919050565b7f47656c61746f666965643a204f6e6c792067656c61746f000000000000000000600082015250565b6000613a3f60178361302b565b9150613a4a82613a09565b602082019050919050565b60006020820190508181036000830152613a6e81613a32565b9050919050565b600080fd5b600080fd5b600080fd5b60008083356001602003843603038112613aa157613aa0613a75565b5b80840192508235915067ffffffffffffffff821115613ac357613ac2613a7a565b5b602083019250602082023603831315613adf57613ade613a7f565b5b509250929050565b600080fd5b600080fd5b60008085851115613b0557613b04613ae7565b5b83861115613b1657613b15613aec565b5b6001850283019150848603905094509492505050565b7f4f70732e6372656174655461736b3a2046756e6374696f6e206e6f7420666f7560008201527f6e64000000000000000000000000000000000000000000000000000000000000602082015250565b6000613b8860228361302b565b9150613b9382613b2c565b604082019050919050565b60006020820190508181036000830152613bb781613b7b565b9050919050565b7f4f70732e6372656174655461736b3a204475706c6963617465207461736b0000600082015250565b6000613bf4601e8361302b565b9150613bff82613bbe565b602082019050919050565b60006020820190508181036000830152613c2381613be7565b9050919050565b600081519050919050565b600082825260208201905092915050565b6000613c5182613c2a565b613c5b8185613c35565b9350613c6b81856020860161303c565b613c748161306f565b840191505092915050565b600081519050919050565b600082825260208201905092915050565b6000819050602082019050919050565b60058110613cbc57613cbb613963565b5b50565b6000819050613ccd82613cab565b919050565b6000613cdd82613cbf565b9050919050565b613ced81613cd2565b82525050565b6000613cff8383613ce4565b60208301905092915050565b6000602082019050919050565b6000613d2382613c7f565b613d2d8185613c8a565b9350613d3883613c9b565b8060005b83811015613d69578151613d508882613cf3565b9750613d5b83613d0b565b925050600181019050613d3c565b5085935050505092915050565b600081519050919050565b600082825260208201905092915050565b6000819050602082019050919050565b600082825260208201905092915050565b6000613dbe82613c2a565b613dc88185613da2565b9350613dd881856020860161303c565b613de18161306f565b840191505092915050565b6000613df88383613db3565b905092915050565b6000602082019050919050565b6000613e1882613d76565b613e228185613d81565b935083602082028501613e3485613d92565b8060005b85811015613e705784840389528151613e518582613dec565b9450613e5c83613e00565b925060208a01995050600181019050613e38565b50829750879550505050505092915050565b60006040830160008301518482036000860152613e9f8282613d18565b91505060208301518482036020860152613eb98282613e0d565b9150508091505092915050565b60006060820190508181036000830152613ee08186613c46565b90508181036020830152613ef48185613e82565b9050613f036040830184612e9f565b949350505050565b6000604082019050613f206000830185612e9f565b613f2d6020830184612e9f565b9392505050565b613f3d816130db565b8114613f4857600080fd5b50565b600081519050613f5a81613f34565b92915050565b60008060408385031215613f7757613f76612cc7565b5b6000613f8585828601613f4b565b9250506020613f9685828601613f4b565b9150509250929050565b60007fffffffff0000000000000000000000000000000000000000000000000000000082169050919050565b613fd581613fa0565b82525050565b600060a082019050613ff06000830188612e9f565b613ffd6020830187612e9f565b61400a6040830186613fcc565b818103606083015261401c8185613e82565b905061402b6080830184612e9f565b9695505050505050565b7f4f70732e657865633a205461736b206e6f7420666f756e640000000000000000600082015250565b600061406b60188361302b565b915061407682614035565b602082019050919050565b6000602082019050818103600083015261409a8161405e565b9050919050565b60006060820190506140b66000830186612e9f565b6140c36020830185612e9f565b6140d060408301846134d0565b949350505050565b6140e1816133aa565b82525050565b600060608201905081810360008301526141018186613c46565b90506141106020830185612ff6565b61411d60408301846140d8565b949350505050565b600060408201905061413a6000830185612ff6565b6141476020830184612e9f565b9392505050565b60006020828403121561416457614163612cc7565b5b600061417284828501613f4b565b91505092915050565b7f4f70732e63616e63656c5461736b3a205461736b206e6f7420666f756e640000600082015250565b60006141b1601e8361302b565b91506141bc8261417b565b602082019050919050565b600060208201905081810360008301526141e0816141a4565b9050919050565b6000813590506141f681613f34565b92915050565b61420581613fa0565b811461421057600080fd5b50565b600081359050614222816141fc565b92915050565b6000806000806080858703121561424257614241612cc7565b5b6000614250878288016141e7565b945050602061426187828801614213565b9350506040614272878288016141e7565b925050606085013567ffffffffffffffff81111561429357614292612ccc565b5b61429f87828801613346565b91505092959194509250565b60006040820190506142c06000830185612e9f565b81810360208301526142d28184613c46565b90509392505050565b6000819050919050565b6142f66142f182613fa0565b6142db565b82525050565b600061430882846142e5565b60048201915081905092915050565b600080600080600060a0868803121561433357614332612cc7565b5b6000614341888289016141e7565b955050602061435288828901614213565b9450506040614363888289016141e7565b935050606086013567ffffffffffffffff81111561438457614383612ccc565b5b61439088828901613346565b92505060806143a1888289016141e7565b9150509295509295909350565b600060a0820190506143c36000830188612ff6565b6143d06020830187612e9f565b6143dd6040830186612e9f565b81810360608301526143ef8185613c46565b905081810360808301526144038184613c46565b90509695505050505050565b7f4f70732e5f6d6f64756c65496e697469616c697365643a204e6f7420696e6974600082015250565b600061444560208361302b565b91506144508261440f565b602082019050919050565b6000602082019050818103600083015261447481614438565b9050919050565b600081905092915050565b600061449182613c2a565b61449b818561447b565b93506144ab81856020860161303c565b80840191505092915050565b60006144c38284614486565b915081905092915050565b600060c0820190506144e36000830189612e9f565b6144f06020830188612e9f565b6144fd6040830187613fcc565b61450a60608301866140d8565b6145176080830185612e9f565b61452460a0830184612ff6565b979650505050505050565b60008160601b9050919050565b60006145478261452f565b9050919050565b60006145598261453c565b9050919050565b61457161456c82612cf1565b61454e565b82525050565b60006145838285614486565b915061458f8284614560565b6014820191508190509392505050565b6145a881613508565b81146145b357600080fd5b50565b6000813590506145c58161459f565b92915050565b600080600080600080600080610100898b0312156145ec576145eb612cc7565b5b60006145fa8b828c016145b6565b985050602061460b8b828c016145b6565b975050604061461c8b828c016141e7565b965050606061462d8b828c01614213565b955050608061463e8b828c016141e7565b94505060a089013567ffffffffffffffff81111561465f5761465e612ccc565b5b61466b8b828c01613346565b93505060c061467c8b828c016141e7565b92505060e061468d8b828c016133cd565b9150509295985092959890939650565b60006146a882613374565b91506146b383613374565b9250828210156146c6576146c5613992565b5b828203905092915050565b60006146dc82613374565b91506146e783613374565b9250827fffffffffffffffffffffffffffffffffffffffffffffffffffffffffffffffff0382111561471c5761471b613992565b5b828201905092915050565b7f4f70732e5f76616c69644d6f64756c65733a20417363206f6e6c790000000000600082015250565b600061475d601b8361302b565b915061476882614727565b602082019050919050565b6000602082019050818103600083015261478c81614750565b9050919050565b7f4e487b7100000000000000000000000000000000000000000000000000000000600052601260045260246000fd5b60006147cd82613374565b91506147d883613374565b9250826147e8576147e7614793565b5b828206905092915050565b600081905092915050565b600061480982613020565b61481381856147f3565b935061482381856020860161303c565b80840191505092915050565b600061483b82856147fe565b915061484782846147fe565b91508190509392505050565b7f4e6f4572726f7253656c6563746f720000000000000000000000000000000000600082015250565b6000614889600f836147f3565b915061489482614853565b600f82019050919050565b60006148ab82846147fe565b91506148b68261487c565b915081905092915050565b7f556e657870656374656452657475726e64617461000000000000000000000000600082015250565b60006148f76014836147f3565b9150614902826148c1565b601482019050919050565b600061491982846147fe565b9150614924826148ea565b915081905092915050565b60006080820190506149446000830187612ff6565b6149516020830186612e9f565b61495e6040830185612e9f565b81810360608301526149708184613c46565b905095945050505050565b600061498e614989846132c4565b6132a9565b9050828152602081018484840111156149aa576149a9613244565b5b6149b584828561303c565b509392505050565b600082601f8301126149d2576149d1612ec9565b5b81516149e284826020860161497b565b91505092915050565b60008060408385031215614a0257614a01612cc7565b5b6000614a1085828601613f4b565b925050602083015167ffffffffffffffff811115614a3157614a30612ccc565b5b614a3d858286016149bd565b9150509250929050565b7f4e487b7100000000000000000000000000000000000000000000000000000000600052603160045260246000fdfea2646970667358221220ea893b16becfac1f61e01881f488d565c4c42ff9d21be0a103e43507fa4f87e864736f6c634300080e0033",
  "linkReferences": {},
  "deployedLinkReferences": {}
}